:020000020000FC
:0C0000000C9430000C9429020C94FF01B9
:10005C000C9453020FEF0DBF01E20EBF90E0909392
:10006C0011020FEF00BB01B9002701BB02B90093CD
:10007C0001020093000240EF40930A014FEF47B991
:10008C009AE0909369009DB393609DBB91E090E0E2
:10009C0094BD94E095BD91E090936E00789490E0BF
:1000AC00909301020FB70F931F932F933F934F938E
:1000BC005F936F937F938F939F93AF93BF93CF93E4
:1000CC00DF93EF93FF93C9E0D2E09927999398833C
:1000DC00FF91EF91DF91CF91BF91AF919F918F9154
:1000EC007F916F915F914F913F912F911F910F9144
:1000FC000FBF0FB70F931F932F933F934F935F93A4
:10010C006F937F938F939F93AF93BF93CF93DF9313
:10011C00EF93FF93C5E0D2E0992799939883FF91D1
:10012C00EF91DF91CF91BF91AF919F918F917F9183
:10013C006F915F914F913F912F911F910F910FBF35
:10014C0090E09093080290930B029093100208E3B6
:10015C0008D117D130D108E304D113D123D108E34E
:10016C0000D10FD108E3FDD00CD108E0FAD009D1B1
:10017C0001E0F7D006D106E0F4D003D10EE0F1D0C7
:10018C0000D100E2F5D0FDD000E2F2D0FAD000E2CE
:10019C00EFD0F7D000E2ECD0F4D000E2E9D0F1D00F
:1001AC000CE4E6D0EED009E6E3D0EBD006E6E0D0E6
:1001BC00E8D004E7DDD0E5D000ECD3D0E2D006E601
:1001CC00D7D0DFD00CE6D4D0DCD00FE6D1D0D9D04C
:1001DC000FE6CED0D6D002E7CBD0D3D00AE3C8D02E
:1001EC00D0D000E2C5D0CDD000E3C2D0CAD04FEF02
:1001FC004DB94FEF4EB940E040939A0040939B00AD
:10020C0041E04093910041E24093900047EE48B9A1
:10021C000C94130140E0409300023FEE1127143080
:10022C00C9F330930B014FEF4A95F1F70E94D801B7
:10023C0040910002403029F041E0409301020C94BF
:10024C002A0140E040930102409109014F704F3068
:10025C0059F021E00027043039F0542F522341F09B
:10026C000395220F0C943101330F13950C94150147
:10027C0041E04093000240910102403059F41330A8
:10028C0049F0033049F0402F440F400F410F4F5FAE
:10029C000C945E010C9413010C945401103021F059
:1002AC00113021F00C9413010C947F010C947C01FF
:1002BC0090910B02913011F40C941301A1E0B0E079
:1002CC009F93942F9A95903024F0AA0FBB1F0C94F7
:1002DC0068019F91E0910902F0910A02EA2BFB2B35
:1002EC00E0930902F0930A020C94130140E00C9481
:1002FC005E0190910B02903049F090E090930B02CC
:10030C0090E092B997EE98B90C94130191E0909308
:10031C000B0290911302903009F085D440E0409389
:10032C009A0040939B0090E09093090290930A02EC
:10033C0090E0A1E0B0E09F93992F9A95903024F033
:10034C00AA0FBB1F0C94A3019F91E0910902F0919D
:10035C000A02EA2BFB2BE0930902F0930A020C949D
:10036C00130101BB1FD0169A1DD016981BD00895EF
:10037C0001BB179A17D0169A15D0169813D0179848
:10038C0008950F93002700BB01BB159A0BD0169A4A
:10039C0009D00FB1169807FDF9CF15980FEF00BBD8
:1003AC000F9108958F939F939FE08CE90197F1F73C
:1003BC009F918F910895F6DFF5DFF4DFF3DFF2DF25
:1003CC000895F9DFF8DFF7DF0895FBDFFADFF9DFD7
:1003DC00F8DFF7DFF6DFEFDFEEDF0895F6DFF5DFAE
:1003EC00F4DFF3DFF2DFF1DFF0DFEFDFEEDFEDDF85
:1003FC0008950FB70F931F932F933F934F935F93D2
:10040C006F937F938F939F93AF93BF93CF93DF9310
:10041C00EF93FF9390910F02903019F091E090932D
:10042C000702FF91EF91DF91CF91BF91AF919F9117
:10043C008F917F916F915F914F913F912F911F9170
:10044C000F910FBF18950FB70F931F932F933F93D7
:10045C004F935F936F937F938F939F93AF93BF93C0
:10046C00CF93DF93EF93FF9390911202903019F09A
:10047C0091E090930602FF91EF91DF91CF91BF91A4
:10048C00AF919F918F917F916F915F914F913F9120
:10049C002F911F910F910FBF18950FB70F931F93AB
:1004AC002F933F934F935F936F937F938F939F9370
:1004BC00AF93BF93CF93DF93EF93FF9390910B0286
:1004CC00913011F00C94AA02A0910502AF5FA436F2
:1004DC00D9F590911102903011F00C947C0292E0BD
:1004EC0092B991E0909311020C94810290E092B930
:1004FC0090E0909311020FB70F931F932F933F939C
:10050C004F935F936F937F938F939F93AF93BF930F
:10051C00CF93DF93EF93FF93C5E0D2E099279993A4
:10052C009883FF91EF91DF91CF91BF91AF919F9104
:10053C008F917F916F915F914F913F912F911F916F
:10054C000F910FBFAA27BB27A0930502809103022E
:10055C0090910402019684389EE1990711F00C9455
:10056C0073040FB70F931F932F933F934F935F9386
:10057C006F937F938F939F93AF93BF93CF93DF939F
:10058C00EF93FF93C3E0D2E0992799939883FF915F
:10059C00EF91DF91CF91BF91AF919F918F917F910F
:1005AC006F915F914F913F912F911F910F910FBFC1
:1005BC0080E08093030280930402409102024395F1
:1005CC004093020290911002913011F00C945A0356
:1005DC000FB70F931F932F933F934F935F936F938B
:1005EC007F938F939F93AF93BF93CF93DF93EF93AF
:1005FC00FF9301E0B6DEC5DE00E8B3DEC2DE05E443
:10060C00B7DEBFDE0DE6B4DEBCDE05E6B1DEB9DE7C
:10061C0002E7AEDEB6DE07E6ABDEB3DE05E6A8DE4D
:10062C00B0DE0EE6A5DEADDE03E6A2DEAADE09E74D
:10063C009FDEA7DE00EC95DEA4DE03E699DEA1DEEC
:10064C0001E696DE9EDE0CE693DE9BDE0CE690DE8B
:10065C0098DE0AE38DDE95DE00E28ADE92DE00E3B0
:10066C0087DE8FDE00E384DE8CDE00E381DE89DE54
:10067C00FF91EF91DF91CF91BF91AF919F918F91AE
:10068C007F916F915F914F913F912F911F910F919E
:10069C000FBF90910B02903011F00C949E0390E0E0
:1006AC00909310020C949E03909108029093080270
:1006BC0001E057DE66DE06E054DE63DE0EE051DE5E
:1006CC0060DE00E255DE5DDE00E252DE5ADE00E264
:1006DC004FDE57DE00E24CDE54DE00E249DE51DE36
:1006EC000CE446DE4EDE09E643DE4BDE06E640DE7B
:1006FC0048DE04E73DDE45DE00EC33DE42DE06E696
:10070C0037DE3FDE0CE634DE3CDE0FE631DE39DE72
:10071C000FE62EDE36DE02E72BDE33DE0AE328DEC2
:10072C0030DE00E225DE2DDE092F005D21DE29DE24
:10073C008091090290910A02803021F4903011F4DA
:10074C000C94790490910802A1E0B0E09F93992F4A
:10075C009A95903024F0AA0FBB1F0C94AE039F9176
:10076C004091090250910A024A175B0719F4F4D020
:10077C000C94A00490910802A1E0B0E09F93992FF3
:10078C009A95903024F0AA0FBB1F0C94C6039F912E
:10079C004091090250910A024A235B23403090E0B9
:1007AC00590719F0D9D00C94A00490910802A1E03B
:1007BC00B0E09F93992F9A95903024F0AA0FBB1F0D
:1007CC000C94E1039F914091090250910A024A173F
:1007DC005B07E8F090910802A1E0B0E09F93992F9D
:1007EC009A95903024F0AA0FBB1F0C94F6039F919E
:1007FC004091090250910A021197A423B523A0300D
:10080C0090E0B90711F40C9412040C94170491E0C5
:10081C0090930C020C94170490E090930C020C949F
:10082C00170490910C02913011F00C9448044FE095
:10083C0048B990910802A1E0B0E09F93992F9A9546
:10084C00903024F0AA0FBB1F0C9425049F9140916B
:10085C00090250910A024A235B23403090E0590769
:10086C0009F07AD090910202923011F00C94A0040D
:10087C0090E090930202909108029A95909308024E
:10088C000C94A00440EF48B990910802A1E0B0E0AC
:10089C009F93992F9A95903024F0AA0FBB1F0C941C
:1008AC0050049F914091090250910A024A235B2304
:1008BC00403090E0590709F04FD0909102029230ED
:1008CC0011F00C94A00490E0909302029091080215
:1008DC009395909308020C94A00480930302909338
:1008EC0004020C94A00440E04093020241E04093C7
:1008FC00120240910602413011F00C94A00440E029
:10090C004093060240910802A1E0B0E09F93942F1F
:10091C009A95903024F0AA0FBB1F0C948E049F91D3
:10092C00E0910902F0910A02EA2BFB2BE0930902F9
:10093C00F0930A02FF91EF91DF91CF91BF91AF91AC
:10094C009F918F917F916F915F914F913F912F91DB
:10095C001F910F910FBF18950FB70F931F932F93E4
:10096C003F934F935F936F937F938F939F93AF932B
:10097C00BF93CF93DF93EF93FF9391E09093130288
:10098C0090910202933048F44FEF40939A004093B9
:10099C009B0047EE48B90C94A00443EC48B941E0E5
:1009AC0040930F0240E040939A0040939B0090913B
:1009BC000702913091F090910202973010F40C9450
:1009CC00A00499B141E04923403011F00C94F30498
:1009DC0097E0909302020C94A00441E04093120221
:1009EC0090910602913011F00C94140594E09093C0
:1009FC00020290E090930602FF91EF91DF91CF916C
:100A0C00BF91AF919F918F917F916F915F914F911A
:100A1C003F912F911F910F910FBF089547EE48B949
:100A2C004FEF40939A0040939B00909107029130B6
:100A3C0011F00C94300590910E02913089F0909148
:100A4C000202939590930D029091020290930202F0
:100A5C000C94360590910202993090F40C94A004F9
:100A6C0041E040930E024FEF40939A0040939B005D
:100A7C0040910D0250910202541710F40C94A004F2
:100A8C0040E040939A0040939B00409302024093B5
:100A9C00070240930D0240930E0240930F024093C5
:100AAC000602409312024093130290910802A1E0B7
:100ABC00B0E09F93992F9A95903024F0AA0FBB1F0A
:100ACC000C9461059F91E0910902F0910A02EA27CA
:100ADC00FB27E0930902F0930A0290910B029130EC
:100AEC0011F00C94070690910802903091F0FF9150
:100AFC00EF91DF91CF91BF91AF919F918F917F91AA
:100B0C006F915F914F913F912F911F910F910FBF5B
:100B1C00089591E0909310029FEF98B90FB70F933F
:100B2C001F932F933F934F935F936F937F938F9369
:100B3C009F93AF93BF93CF93DF93EF93FF9301E01A
:100B4C0010DC1FDC00E80DDC1CDC05E411DC19DC1E
:100B5C000DE60EDC16DC05E60BDC13DC02E708DC2C
:100B6C0010DC07E605DC0DDC05E602DC0ADC0EE633
:100B7C00FFDB07DC03E6FCDB04DC09E7F9DB01DC6B
:100B8C0000ECEFDBFEDB03E6F3DBFBDB01E6F0DB8B
:100B9C00F8DB0CE6EDDBF5DB0CE6EADBF2DB0AE37B
:100BAC00E7DBEFDB00E2E4DBECDB00E3E1DBE9DBE2
:100BBC0000E3DEDBE6DB00E3DBDBE3DBFF91EF9165
:100BCC00DF91CF91BF91AF919F918F917F916F9159
:100BDC005F914F913F912F911F910F910FBFFF91FB
:100BEC00EF91DF91CF91BF91AF919F918F917F91B9
:100BFC006F915F914F913F912F911F910F910FBF6B
:100C0C000895FF91EF91DF91CF91BF91AF919F919B
:100C1C008F917F916F915F914F913F912F911F9188
:100C2C000F910FBF08950FB70F931F932F933F93FF
:100C3C004F935F936F937F938F939F93AF93BF93D8
:100C4C00CF93DF93EF93FF934FEF40939A00409332
:100C5C009B00C4DB47EE48B940E040939A004093B8
:100C6C009B00409302024093070240930D02409375
:100C7C000E0240930F0240930602409312024093DF
:100C8C00130290910802A1E0B0E09F93992F9A95DE
:100C9C00903024F0AA0FBB1F0C944D069F91E0914D
:100CAC000902F0910A02EA27FB27E0930902F0936C
:100CBC000A02FF91EF91DF91CF91BF91AF919F917C
:100CCC008F917F916F915F914F913F912F911F91D8
:060CDC000F910FBF089507
:00000001FF
