:020000020000FC
:0C0000000C9430000C9475010C944A0123
:10005C000C949F010FEF0DBF01E20EBF0FEF00BB21
:10006C0001B9002701BB02B9009301020093000201
:10007C0040EF40930A014FEF47B948B99AE090938B
:10008C0069009DB393609DBB91E09093080290939F
:10009C00070290E094BD92E095BD91E090936E00C4
:1000AC00789408E3BDD0CCD0E5D008E3B9D0C8D063
:1000BC00D8D008E3B5D0C4D008E3B2D0C1D008E0A2
:1000CC00AFD0BED001E0ACD0BBD006E0A9D0B8D048
:1000DC000EE0A6D0B5D000E2AAD0B2D000E2A7D0F4
:1000EC00AFD000E2A4D0ACD000E2A1D0A9D000E205
:1000FC009ED0A6D00CE49BD0A3D009E698D0A0D07B
:10010C0006E695D09DD004E792D09AD00C9491003D
:10011C0040E0409300023FEE11271430C9F33093B6
:10012C000B014FEF4A95F1F70E94460140910002F6
:10013C00403029F041E0409301020C94A80040E0CB
:10014C0040930102409109014F704F3059F021E06A
:10015C000027043039F0542F522341F00395220F1D
:10016C000C94AF00330F13950C94930041E0409323
:10017C00000240910102403069F448B9133051F04B
:10018C00033051F0402F440F400F410F4F5F740F5D
:10019C000C94DA000C9491000C94D400103011F0F3
:1001AC000C9491000C94DD0078B90C94910008E348
:1001BC0037D046D05FD008E333D042D052D008E3DA
:1001CC002FD03ED008E32CD03BD008E029D038D03B
:1001DC0001E026D035D006E023D032D00EE020D07E
:1001EC002FD000E224D02CD000E221D029D000E284
:1001FC001ED026D000E21BD023D000E218D020D095
:10020C000CE415D01DD009E612D01AD006E60FD09A
:10021C0017D004E70CD014D0662777270C949100E4
:10022C0001BB1FD0169A1DD016981BD0089501BB88
:10023C00179A17D0169A15D0169813D017980895A8
:10024C000F93002700BB01BB159A0BD0169A09D04F
:10025C000FB1169807FDF9CF15980FEF00BB0F9152
:10026C0008958F939F939FE08CE90197F1F79F91ED
:10027C008F910895F6DFF5DFF4DFF3DFF2DF0895F9
:10028C00F9DFF8DFF7DF08950FB70F931F932F9364
:10029C003F934F935F936F937F938F939F93AF9302
:1002AC00BF93CF93DF93EF93FF939091080291301C
:1002BC0021F490E09093080201F0FF91EF91DF910F
:1002CC00CF91BF91AF919F918F917F916F915F91E2
:1002DC004F913F912F911F910F910FBF18950FB711
:1002EC000F931F932F933F934F935F936F937F9332
:1002FC008F939F93AF93BF93CF93DF93EF93FF9322
:10030C0090910702913019F490E090930702FF91BD
:10031C00EF91DF91CF91BF91AF919F918F917F9191
:10032C006F915F914F913F912F911F910F910FBF43
:10033C0018959FB79F93DF93CF939F938F93909133
:10034C000802903031F090910702903011F00C942B
:10035C00C401A0910902B0910A021196A83097E04D
:10036C009B0761F491E09093070290930802C9E017
:10037C00D2E0992799939883AA27BB27A0930902C7
:10038C00B0930A028091050290910602019684387E
:10039C009EE1990751F4C5E0D2E09927999398838F
:1003AC0080E080930502809306028093050290936F
:1003BC0006020C94E1018F919F91CF91DF919F9157
:0403CC009FBF189522
:00000001FF
